:1000000012C02CC02BC02AC029C028C027C026C0BF
:1000100025C06EC023C022C021C020C01FC01EC08A
:100020001DC01CC01BC011241FBECFE5D4E0DEBF25
:10003000CDBF10E0A0E6B0E0E8E1F6E002C0059038
:100040000D92AE36B107D9F710E0AEE6B0E001C0D0
:100050001D92A737B107E1F784D0DCC2D1CF8CB9AC
:100060005D9BFECF5D9A08951F93CF93DF93EC01C4
:1000700010E0812F90E0FE0101900020E9F7319718
:10008000EC1BFD0B8E179F0738F4FE01E80FF91FDC
:100090008081E5DF1F5FEDCFDF91CF911F91089544
:1000A00086E082BF89B7816089BF83E083BF1092F9
:1000B0006F001092700010927100109272001092F6
:1000C000740010927300089523B72C7F23BF26E09D
:1000D00022BF60936F0070937000809371009093C3
:1000E0007200109274001092730083E083BF089531
:1000F0001F920F920FB60F9211242F938F939F93FD
:10010000AF93BF9386E082BF80917300909174009B
:1001100001969093740080937300883E9340B8F0EA
:1001200080916F0090917000A0917100B091720069
:100130000196A11DB11D80936F0090937000A09354
:100140007100B09372001092740010927300BF910E
:10015000AF919F918F912F910F900FBE0F901F9095
:100160001895CF93DF93CDB7DEB72C970FB6F894E1
:10017000DEBF0FBECDBF94DF10BC89E189B98AB163
:1001800088618AB986E880BD8CB15F99FDCF80EE29
:100190008BB940E02AEF30E011E080E0E4E65F99BF
:1001A0000EC0EE2391F0811101C0E15090E0019664
:1001B000B9015FD095E19A95F1F70000F0CFEE23F9
:1001C00021F010926E008CB103C010936E0080E09D
:1001D00090916E00992321F04A3011F48A30A9F4ED
:1001E000E1E0F0E0EC0FFD1FE40FF11D80834F5FB5
:1001F0004B3098F21C864AE050E060E070E0CE019F
:1002000001965ED061DF78940AC040E0C6CFEFE986
:10021000FFE03197F1F700C000008150C1F780E6A0
:1002200090E022DF60916F0070917000809171000A
:10023000909172002AE030E0AE014F5F5F4F59D1DC
:100240001C86CE01019610DF8AE309DF4AE050E008
:10025000BE016F5F7F4F80917300909174006CD1ED
:100260001C86CE01019600DF8CE690E0FDDE8AEF71
:10027000CECF97FB072E16F4009406D077FD08D05A
:100280000BD007FC05D03EF4909581959F4F0895C3
:10029000709561957F4F0895AA1BBB1B51E107C064
:1002A000AA1FBB1FA617B70710F0A61BB70B881F06
:1002B000991F5A95A9F780959095BC01CD01089595
:1002C0002F923F925F926F927F928F929F92AF9206
:1002D000BF92CF92DF92EF92FF920F931F93CF9333
:1002E000DF938B01EA016115710521F0DB018C932D
:1002F00011969C93209739F09E01225031092332A8
:10030000310508F0D5C07C016701BFEFCB1ADB0ACD
:100310005601F7016080862D90E0E3D0892B11F023
:100320007601F2CFFDE26F120AC0570182E0A80EFB
:10033000B11CD70111966C90772473940BC0BBE26B
:100340006B1207C05701E2E0AE0EB11CD701119647
:100350006C90712CCE018F7E892B89F4B0E36B12E7
:1003600036C0F50180818F7D8835D1F46180F2E05F
:10037000AF0EB11C872D8260782EC0E1D0E0CA306C
:10038000D10549F1C031D10521F0C830D10599F42A
:1003900009C0CC24CA94DC2CEC2CAFE0FA2E21C08E
:1003A000209769F7C8E0D0E0CC24CA94DC2CEC2C70
:1003B000FFE1FF2E16C06FEF7FEFCB019E014427B8
:1003C00037FD4095542FEED069017A010AC020977D
:1003D000B1F6CAE0D0E0E9E9CE2EDC2CEC2CE9E164
:1003E000FE2EF50160E020E030E0A9014E01AA24D4
:1003F00097FCA094BA2C1F0170ED572E560CA9E063
:10040000A51570F48FEB860D8A3118F499EC592EEE
:1004100006C08FE9860D8A3140F589EA582E560CC0
:10042000852D90E08C179D0704F56F3FD1F0C21623
:10043000D306E406F50690F0C501B401A4D09B01F3
:10044000AC01852D90E0A0E0B0E0280F391F4A1FD5
:100450005B1F281739074A075B0710F46FEF01C0CD
:1004600061E03196D1016C90C6CF0115110551F0B4
:10047000662311F0319703C071FE04C03297D80192
:10048000ED93FC9370FE07C05095409530952195F3
:100490003F4F4F4F5F4F67FF10C082E290E0909355
:1004A0007600809375006FEF7FEF8FEF9FEF07C0AF
:1004B00060E070E080E090E002C0B901CA01DF9125
:1004C000CF911F910F91FF90EF90DF90CF90BF9051
:1004D000AF909F908F907F906F905F903F902F9004
:1004E000089591113DC0803219F089508550D0F7A0
:1004F0000895FA01CF93FF93EF932230C4F0253291
:10050000B4F4C22F2C2F332744275527FF93EF93A2
:1005100049D0EF91FF91605D6A330CF0695D6193A2
:10052000B901CA01605070408040904059F7108274
:100530008F919F91CF9117C0FB019F0142306CF0CA
:1005400045325CF4642F7727A7DE805D8A330CF098
:10055000895D8193CB010097A9F71082C90103C07F
:10056000992788270895DC01FC01672F7191772373
:10057000E1F7329704C07C916D9370836291AE175E
:10058000BF07C8F30895DB018F939F932DD0BF91D0
:10059000AF91A29F800D911DA39F900DB29F900DD2
:1005A00011240895A1E21A2EAA1BBB1BFD010DC048
:1005B000AA1FBB1FEE1FFF1FA217B307E407F50713
:1005C00020F0A21BB30BE40BF50B661F771F881FEF
:1005D000991F1A9469F760957095809590959B0185
:1005E000AC01BD01CF01089509D0A59F900DB49F26
:1005F000900DA49F800D911D11240895A29FB0011C
:10060000B39FC001A39F01D0B29F700D811D112423
:08061000911D0895F894FFCF3D
:0E06180074696D657374616D703A20000A009C
:00000001FF
