:1000000012C02CC02BC02AC029C028C027C026C0BF
:1000100025C07EC123C022C021C020C01FC01EC079
:100020001DC01CC01BC011241FBECFE5D4E0DEBF25
:10003000CDBF10E0A0E6B0E0E2ECFFE002C005902A
:100040000D92AC3BB107D9F711E0ACEBB0E001C0C9
:100050001D92A837B107E1F781D2B1C7D1CF40E0F7
:10006000242F30E0FC0101900020E9F73197E81BD4
:10007000F90B2E173F0750F4FC01E20FF31F20810C
:100080002CB95D9BFECF5D9A4F5FEACF08954AE0A1
:1000900050E060E070E04ED323B72C7F23BF26E012
:1000A00022BF60931E0170931F01809320019093E3
:1000B0002101109223011092220183E083BF80E787
:1000C00090E0CDCFFC0101900020E9F7AF01415055
:1000D0005109481B590BBC018EEF90E04BD421E035
:1000E000892B09F020E0822F08950F931F93CF935F
:1000F000DF93CDB7DEB761970FB6F894DEBF0FBEC2
:10010000CDBF2A874C875D876E877F87888B998BC9
:100110008E010F5F1F4F311103C06AE770E002C00C
:1001200063E870E0C8011FD489898F9388898F9311
:100130001F930F938F858F938E858F938D858F93CC
:100140008C858F938A851F928F938CE890E09F9384
:100150008F931F9280E48F938DEB90E09F938F930A
:1001600017D40FB6F894DEBF0FBECDBF61960FB6A1
:10017000F894DEBF0FBECDBFDF91CF911F910F91DD
:10018000089510BC89E189B98AB188618AB986E885
:1001900080BD8CB15F99FDCF80EE8BB9089580E072
:1001A00044E62AEF30E05F990EC0442391F08111BC
:1001B00001C0415090E00196B90195D295E19A9520
:1001C000F1F70000F0CF442321F01092BC008CB175
:1001D000089581E08093BC0080E00895CF92DF9283
:1001E000FF920F931F93CF93DF931F92CDB7DEB78C
:1001F0006C01FC011082623010F480E01DC010928E
:10020000BC008C01F12C8091BC0081110BC0698372
:10021000C6DFF80181938F01F3946981F61611F01E
:100220008A3089F7EF2DF0E03197EC0DFD1D8081CC
:100230008A3019F7108281E00F90DF91CF911F91E2
:100240000F91FF90DF90CF9008950F931F93CF935E
:10025000DF93C82FD0917201109173011D1709F41B
:1002600052C040911E0150911F0160912001709178
:100270002101A82FB0E086E0C89FF0011124EC5DB9
:10028000FE4F01E08081813009F400E020912201DD
:100290003091230186E08A9FF0018B9FF00D11249D
:1002A000EC5DFE4F0180F281E02DE217F30728F4A8
:1002B000209122013091230106C02091220130912A
:1002C000230128513C4F2E1B3F0BA09175018A2F13
:1002D00090E0E0917001F0917101B8E0AB9FE00D0A
:1002E000F11D1124C083018342835383648375838A
:1002F000378326831F5F1093730101966D2F70E083
:10030000F2D180937501DF91CF911F910F910895E4
:100310001F920F920FB60F9211244F925F926F921D
:100320007F928F929F92AF92BF92CF92DF92EF9285
:10033000FF920F931F932F933F934F935F936F936E
:100340007F938F939F93AF93BF93CF93DF93EF935D
:10035000FF9386E082BF8091220190912301019654
:100360009093230180932201809122019091230197
:10037000883E9340B8F080911E0190911F01A0919A
:100380002001B09121010196A11DB11D80931E0194
:1003900090931F01A0932001B0932101109223019B
:1003A00010922201C4E2D1E009E211E087E6E82ED2
:1003B00080E0F82E90E6A92E90E0B92E26E6C22E17
:1003C00020E0D22E412C34E6732E42E0642E58EE0B
:1003D000852E53E0952E552453948881813071F1F8
:1003E00018F08230B1F155C0D8018C91811122C032
:1003F000D501ED91FC918081D6019C91892339F042
:100400008081D7012C91822311F458820AC0808107
:10041000D7012C91822309F43CC080818923C9F53E
:1004200068829C828B8280912201909123019A8321
:1004300089832FC08150F80180832BC0D501ED91B5
:10044000FC918081D7019C918923B1F08081F601D4
:100450000AC0D501ED91FC918081D6019C91892340
:1004600059F08081F7019081892331F4842DEDDEEC
:100470001882D8017C920DC02B813C812115310559
:1004800021F41882F801108204C0215031093C8304
:100490002B83439426960A5F1F4FF8E0EF0EF11C62
:1004A00028E0A20EB11C88E0C80ED11CA2E04A12BE
:1004B00094CFFF91EF91DF91CF91BF91AF919F9139
:1004C0008F917F916F915F914F913F912F911F91EC
:1004D0000F91FF90EF90DF90CF90BF90AF909F90E3
:1004E0008F907F906F905F904F900F900FBE0F9006
:1004F0001F90189587B38F7C87BB88B3806388BBB8
:1005000010922401109229011092280110922701C3
:10051000109226011092250187B3837F87BB88B391
:100520008C6088BB10922A0110922F0110922E012C
:1005300010922D0110922C0110922B0180E391E07A
:100540009093710180937001109274011092750163
:100550001092730188E0809372010895CF93DF9326
:10056000CDB7DEB760970FB6F894DEBF0FBECDBF34
:1005700084B3876084BB1092FD00BCDF86E082BF3D
:1005800089B7816089BF83E083BF10921E011092FA
:100590001F0110922001109221011092230110924C
:1005A0002201EFDD789418E082E0F82E01E08091DE
:1005B000FD00813011F120F0823009F47CC0F9CFC8
:1005C00060E28EEF90E00ADE882389F382EA90E011
:1005D00079DD882319F088EA90E083C083EB90E00E
:1005E00071DD882321F382E091E051DD10927401E6
:1005F00010927501109273016FC060E28EEF90E06F
:10060000EDDD8823A1F082EA90E05CDD882331F003
:1006100088EA90E024DD1092FD00C9CF83EB90E0E2
:1006200051DD882321F282E091E031DDC0CF2091BD
:100630007301222309F4BBCF30917401832F90E022
:10064000E0917001F091710148E0349FE00DF11DDF
:100650001124DE011996312F01900D923A95E1F7A0
:1006600001966091720170E03ED080937401215038
:1006700020937301FE013996DE011196812F0190BE
:100680000D928A95E1F7FE013196DE011996812FD0
:1006900001900D928A95E1F729853A854B855C8515
:1006A0006D857E858F85988920DD8DEB90E0D7DC88
:1006B000F092FD007CCF60E28EEF90E08FDD88232A
:1006C00071F082EA90E0FEDC8111A2CF87EB90E02E
:1006D000F9DC882309F46BCF0093FD0068CF8DEB24
:1006E00090E0BDDC64CF97FB072E16F4009406D093
:1006F00077FD08D00BD007FC05D03EF4909581958E
:100700009F4F0895709561957F4F0895AA1BBB1B5D
:1007100051E107C0AA1FBB1FA617B70710F0A61B01
:10072000B70B881F991F5A95A9F780959095BC0122
:10073000CD0108952F923F925F926F927F928F9298
:100740009F92AF92BF92CF92DF92EF92FF920F9360
:100750001F93CF93DF938B01EA016115710521F09F
:10076000DB018C9311969C93209739F09E012250C7
:1007700031092332310508F0D5C07C016701BFEF94
:10078000CB1ADB0A5601F7016080862D90E0E3D09A
:10079000892B11F07601F2CFFDE26F120AC05701EA
:1007A00082E0A80EB11CD70111966C907724739447
:1007B0000BC0BBE26B1207C05701E2E0AE0EB11CEA
:1007C000D70111966C90712CCE018F7E892B89F404
:1007D000B0E36B1236C0F50180818F7D8835D1F48E
:1007E0006180F2E0AF0EB11C872D8260782EC0E1EF
:1007F000D0E0CA30D10549F1C031D10521F0C8306F
:10080000D10599F409C0CC24CA94DC2CEC2CAFE0BF
:10081000FA2E21C0209769F7C8E0D0E0CC24CA9412
:10082000DC2CEC2CFFE1FF2E16C06FEF7FEFCB012D
:100830009E01442737FD4095542F52D369017A0118
:100840000AC02097B1F6CAE0D0E0E9E9CE2EDC2C50
:10085000EC2CE9E1FE2EF50160E020E030E0A9019A
:100860004E01AA2497FCA094BA2C1F0170ED572EBC
:10087000560CA9E0A51570F48FEB860D8A3118F49B
:1008800099EC592E06C08FE9860D8A3140F589EA28
:10089000582E560C852D90E08C179D0704F56F3F60
:1008A000D1F0C216D306E406F50690F0C501B401F6
:1008B00008D39B01AC01852D90E0A0E0B0E0280FAB
:1008C000391F4A1F5B1F281739074A075B0710F4B7
:1008D0006FEF01C061E03196D1016C90C6CF011578
:1008E000110551F0662311F0319703C071FE04C069
:1008F0003297D801ED93FC9370FE07C05095409558
:10090000309521953F4F4F4F5F4F67FF10C082E2F8
:1009100090E090937701809376016FEF7FEF8FEFF8
:100920009FEF07C060E070E080E090E002C0B90196
:10093000CA01DF91CF911F910F91FF90EF90DF904F
:10094000CF90BF90AF909F908F907F906F905F906F
:100950003F902F90089591110BC2803219F0895069
:100960008550D0F70895FB01DC0101900D92002025
:10097000E1F70895FB01DC014150504030F08D91CA
:100980000190801919F40020B9F7881B990B08957C
:10099000AEE0B0E0EDECF4E0D3C20D891E898F89A2
:1009A000988D26E02C831A83098397FF02C080E08C
:1009B00090E801979E838D83AE01455E5F4F698D00
:1009C0007A8DCE01019611D04D815E8157FD0AC00E
:1009D0002F813885421753070CF49A01F801E20F72
:1009E000F31F10822E96E4E0C7C2ACE0B0E0EAEF5D
:1009F000F4E098C27C016B018A01FC011782168227
:100A0000838181FFB0C1CE0101964C01F701938132
:100A1000F60193FD859193FF81916F01882309F47D
:100A20009EC1853239F493FD859193FF81916F01C9
:100A3000853221F4B70190E0B4D1E8CF512C312CAC
:100A400020E02032A0F48B3269F030F4803259F08B
:100A5000833269F420612CC08D3239F0803339F44F
:100A6000216026C02260246023C0286021C027FDA9
:100A700027C030ED380F3A3078F426FF06C0FAE090
:100A80005F9E300D1124532E13C08AE0389E300D26
:100A90001124332E20620CC08E3221F426FD5FC15A
:100AA000206406C08C3611F4206802C0883641F4F8
:100AB000F60193FD859193FF81916F018111C1CF63
:100AC000982F9F7D9554933028F40C5F1F4FFFE3C0
:100AD000F9830DC0833631F0833771F0833509F027
:100AE00057C021C0F801808189830E5F1F4F4424C5
:100AF0004394512C540114C03801F2E06F0E711C64
:100B0000F801A080B18026FF03C0652D70E002C00F
:100B10006FEF7FEFC5012C8739D12C0183012C8524
:100B20002F77222E16C03801F2E06F0E711CF801EB
:100B3000A080B18026FF03C0652D70E002C06FEF7A
:100B40007FEFC5012C8717D12C012C852068222E20
:100B5000830123FC19C0832D90E048165906A0F4A8
:100B6000B70180E290E01DD13A94F5CFF50127FC62
:100B7000859127FE81915F01B70190E012D131107C
:100B80003A94F1E04F1A51084114510479F7DEC04C
:100B9000843611F0893631F5F80127FF07C06081EE
:100BA0007181828193810C5F1F4F08C060817181C8
:100BB000882777FD8095982F0E5F1F4F2F76B22ED6
:100BC00097FF09C090958095709561957F4F8F4FE5
:100BD0009F4F2068B22E2AE030E0A40114D1A82E45
:100BE000A81843C0853729F42F7EB22E2AE030E0C2
:100BF00025C0F22FF97FBF2E8F36C1F018F488354B
:100C000079F0ADC0803719F0883721F0A8C02F2FB8
:100C10002061B22EB4FE0DC08B2D8460B82E09C0A9
:100C200024FF0AC09F2F9660B92E06C028E030E04E
:100C300005C020E130E002C020E132E0F801B7FE5B
:100C400007C060817181828193810C5F1F4F06C054
:100C50006081718180E090E00E5F1F4FA401D3D0CE
:100C6000A82EA818FB2DFF77BF2EB6FE0BC02B2D8C
:100C70002E7FA51450F4B4FE0AC0B2FC08C02B2D80
:100C80002E7E05C07A2C2B2D03C07A2C01C0752C2A
:100C900024FF0DC0FE01EA0DF11D8081803311F4A7
:100CA000297E09C022FF06C07394739404C0822F6A
:100CB000867809F0739423FD12C020FF06C05A2CD9
:100CC000731418F4530C5718732C731460F4B70191
:100CD00080E290E02C8765D073942C85F6CF731456
:100CE00010F4371801C0312C24FF11C0B70180E384
:100CF00090E02C8756D02C8522FF16C021FF03C020
:100D000088E590E002C088E790E0B7010CC0822F30
:100D1000867851F021FD02C080E201C08BE227FD00
:100D20008DE2B70190E03DD0A51430F4B70180E327
:100D300090E037D05A94F8CFAA94F401EA0DF11D4F
:100D40008081B70190E02DD0A110F6CF332009F4B7
:100D50005DCEB70180E290E024D03A94F7CFF7015E
:100D60008681978102C08FEF9FEF2C96E2E1F6C05B
:100D7000992788270895FC01059061507040011063
:100D8000D8F7809590958E0F9F1F0895FC016150B4
:100D9000704001900110D8F7809590958E0F9F1F9D
:100DA00008950F931F93CF93DF93182F092FEB0113
:100DB0008B8181FD03C08FEF9FEF20C082FF10C0A9
:100DC0004E815F812C813D81421753077CF4E8817D
:100DD000F9819F012F5F3F4F39832883108306C01D
:100DE000E885F985812F0995892B29F72E813F8187
:100DF0002F5F3F4F3F832E83812F902FDF91CF9125
:100E00001F910F910895FA01AA27283051F120313E
:100E100081F1E8946F936E7F6E5F7F4F8F4F9F4F8E
:100E2000AF4FB1E03ED0B4E03CD0670F781F891FD0
:100E30009A1FA11D680F791F8A1F911DA11D6A0F9E
:100E4000711D811D911DA11D20D009F468943F9151
:100E50002AE0269F11243019305D3193DEF6CF0150
:100E60000895462F4770405D4193B3E00FD0C9F716
:100E7000F6CF462F4F70405D4A3318F0495D31FD83
:100E80004052419302D0A9F7EACFB4E0A6959795D6
:100E9000879577956795BA95C9F7009761057105AC
:100EA00008959B01AC010A2E0694579547953795F6
:100EB0002795BA95C9F7620F731F841F951FA01D50
:100EC0000895DB018F939F9364D0BF91AF91A29F50
:100ED000800D911DA39F900DB29F900D1124089538
:100EE000A1E21A2EAA1BBB1BFD010DC0AA1FBB1F2E
:100EF000EE1FFF1FA217B307E407F50720F0A21BA0
:100F0000B30BE40BF50B661F771F881F991F1A940C
:100F100069F760957095809590959B01AC01BD0136
:100F2000CF0108952F923F924F925F926F927F92DE
:100F30008F929F92AF92BF92CF92DF92EF92FF92E9
:100F40000F931F93CF93DF93CDB7DEB7CA1BDB0B95
:100F50000FB6F894DEBF0FBECDBF09942A8839883A
:100F600048885F846E847D848C849B84AA84B98441
:100F7000C884DF80EE80FD800C811B81AA81B9814D
:100F8000CE0FD11D0FB6F894DEBF0FBECDBFED0161
:100F9000089509D0A59F900DB49F900DA49F800D3A
:100FA000911D11240895A29FB001B39FC001A39F7A
:100FB00001D0B29F700D811D1124911D0895F894E8
:020FC000FFCF61
:100FC2003600380037001020360038003700080499
:100FD20053796E632061636B0A004F6E65546F54E0
:100FE200776F0054776F546F4F6E65004361707373
:100FF200756C6520257520256C7520257320257557
:101002000A005265736574005265736574206163EA
:0C1012006B0A005365740041636B000022
:00000001FF
