:1000000012C02CC02BC02AC029C028C027C026C0BF
:1000100025C07CC123C022C021C020C01FC01EC07B
:100020001DC01CC01BC011241FBECFE5D4E0DEBF25
:10003000CDBF10E0A0E6B0E0ECEAFFE002C0059022
:100040000D92AC3DB107D9F721E0ACEDB0E001C0B5
:100050001D92A03BB207E1F79AD2A6C7D1CF40E0EC
:10006000242F30E0FC0101900020E9F73197E81BD4
:10007000F90B2E173F0750F4FC01E20FF31F20810C
:100080002CB95D9BFECF5D9A4F5FEACF08954AE0A1
:1000900050E060E070E065D323B72C7F23BF26E0FB
:1000A00022BF60933E0170933F0180934001909383
:1000B0004101109243011092420183E083BF80E925
:1000C00090E0CDCFFC0101900020E9F73197AF011E
:1000D000481B590BBC018EE191E042D421E0892BF1
:1000E00009F020E0822F08950F931F93CF93DF93A1
:1000F000CDB7DEB761970FB6F894DEBF0FBECDBFA8
:100100002A874C875D876E877F87888B998B8E01C6
:100110000F5F1F4F311103C06AE970E002C063EA4C
:1001200070E0C80116D489898F9388898F931F93B3
:100130000F938F858F938E858F938D858F938C856D
:100140008F938A851F928F938CEA90E09F938F9371
:100150001F9280E48F938DED90E09F938F930ED448
:100160000FB6F894DEBF0FBECDBF61960FB6F89400
:10017000DEBF0FBECDBFDF91CF911F910F910895CC
:1001800010BC89E189B98AB188618AB986E880BDE5
:100190008CB15F99FDCF80EE8BB9089580E024E6A5
:1001A000EAEFF0E05F990EC0222391F0811101C0C7
:1001B000215090E00196BF01ADD295E19A95F1F7FB
:1001C0000000F0CF222321F01092DC008CB10895C2
:1001D00081E08093DC0080E00895DF92EF92FF924F
:1001E0000F931F93CF93DF931F92CDB7DEB78C0190
:1001F000FC011082623010F480E01EC01092DC001E
:100200007C01D12C8091DC0081110BC06983C6DF99
:10021000F70181937F01D39469816D1519F08A30BC
:1002200089F76D2DE62FF0E03197E00FF11F808107
:100230008A3011F7108281E00F90DF91CF911F91EA
:100240000F91FF90EF90DF900895CF92DF92EF92A1
:10025000FF926091AA019091AB01691709F451C016
:10026000C0903E01D0903F01E0904001F0904101EC
:10027000282F30E046E0849FF0011124EC5BFE4F14
:1002800071E04081413009F470E046E0429FF001A6
:10029000439FF00D1124EC5BFE4F41815281209170
:1002A0004201309143014217530728F42091420143
:1002B0003091430106C02091420130914301285101
:1002C0003C4F241B350BA091AD014A2F50E0E0912B
:1002D000A801F091A901B8E0AB9FE00DF11D112438
:1002E00080837183C282D382E482F582378326833E
:1002F0009F5F9093AB01CA01019670E00BD280938F
:10030000AD01FF90EF90DF90CF9008951F920F9274
:100310000FB60F9211242F923F924F925F926F92DD
:100320007F928F929F92AF92BF92CF92DF92EF9285
:10033000FF920F931F932F933F934F935F936F936E
:100340007F938F939F93AF93BF93CF93DF93EF935D
:10035000FF9386E082BF8091420190914301019614
:100360009093430180934201809142019091430117
:10037000883E9340B8F080913E0190913F01A0915A
:100380004001B09141010196A11DB11D80933E0134
:1003900090933F01A0934001B0934101109243011B
:1003A0001092420104E411E0C9E4D1E087E4E82EB0
:1003B00081E0F82E97E6C92E90E0D92E20E6622E35
:1003C00020E0722E36E6A32E30E0B32E512C44E608
:1003D000442E52E0352E6EEE862E62E0962E2224BA
:1003E0002394D8018C91813079F118F08230B9F1E1
:1003F00056C08881811125C0D301ED91FC91908177
:10040000D5012C91922341F08081D6019C919823B3
:1004100019F4F80120820BC08081D6019C919823A9
:1004200009F43DC080818223D1F5F8013082D701E3
:100430008D929C928091420190914301FE013497EC
:100440002CC0815088832BC0D301ED91FC91908109
:10045000D6018C918923B1F09081F5010AC0D301B6
:10046000ED91FC919081D5018C91892359F0908177
:10047000F6018081892331F4852DE7DED8011C92B5
:1004800048820DC0F70180819181009721F4D80145
:100490001C92188204C00197F701918380835394C2
:1004A0000A5F1F4F2696F6E0EF0EF11C28E0C20E01
:1004B000D11C88E0680E711CA8E0AA0EB11CB6E041
:1004C0005B128FCFFF91EF91DF91CF91BF91AF91F1
:1004D0009F918F917F916F915F914F913F912F915C
:1004E0001F910F91FF90EF90DF90CF90BF90AF9052
:1004F0009F908F907F906F905F904F903F902F9044
:100500000F900FBE0F901F901895CF93DF93E7E6E3
:10051000F0E0A9E4B1E0EF01239748815981EA01B5
:1005200098819F0121503109E90128818081822B26
:10053000282F20959223EA019883EF0125970990AF
:10054000D881C02D9881892B8883ED012597188249
:100550001C92239619821882229719821882389643
:100560001696D0E0E739FD07B1F688E691E0909362
:10057000A9018093A8011092AC011092AD011092D4
:10058000AB0188E08093AA01DF91CF910895CF93CA
:10059000DF93CDB7DEB760970FB6F894DEBF0FBE1E
:1005A000CDBF84B3876084BB10921D01AEDF86E0AF
:1005B00082BF89B7816089BF83E083BF10923E010B
:1005C00010923F011092400110924101109243019C
:1005D00010924201D5DD789402E011E080911D0176
:1005E000813011F120F0823009F47CC0F9CF60E253
:1005F0008EE191E0F2DD882389F382EC90E062DD08
:10060000882319F088EC90E083C083ED90E05ADDF8
:10061000882321F382E291E03ADD1092AC0110923E
:10062000AD011092AB016FC060E28EE191E0D5DDCB
:100630008823A1F082EC90E045DD882331F088EC3E
:1006400090E00DDD10921D01C9CF83ED90E03ADD01
:10065000882321F282E291E01ADDC0CF2091AB0124
:10066000222309F4BBCF3091AC01832F90E0E091BD
:10067000A801F091A90148E0349FE00DF11D11247B
:1006800038E0DE01199601900D923A95E1F7019656
:100690006091AA0170E03ED08093AC01215020937C
:1006A000AB0188E0FE013996DE01119601900D92B2
:1006B0008A95E1F788E0FE013196DE0119960190F6
:1006C0000D928A95E1F729853A854B855C856D8584
:1006D0007E858F85988908DD8DED90E0C0DC0093E4
:1006E0001D017CCF60E28EE191E077DD882371F01F
:1006F00082EC90E0E7DC8111A2CF87ED90E0E2DCB4
:10070000882309F46BCF10931D0168CF8DED90E025
:10071000A6DC64CF97FB072E16F4009406D077FD75
:1007200008D00BD007FC05D03EF4909581959F4FE3
:100730000895709561957F4F0895AA1BBB1B51E1E9
:1007400007C0AA1FBB1FA617B70710F0A61BB70B41
:10075000881F991F5A95A9F780959095BC01CD01E6
:100760000895A0E0B0E0E6EBF3E0DCC35C016B01D0
:100770007A016115710519F0FB0191838083E11401
:10078000F10429F0C7010297839708F0C6C0E5017C
:100790002196F5011081812F90E0D3D0892B11F0A3
:1007A0005E01F5CF1D3229F42196F501118101E09A
:1007B00007C01B3221F4E5012296F501118100E00A
:1007C000E114F104B1F0F0E1EF16F10429F4AEC048
:1007D00010E3E114F10401F12AE0E216F104A9F1B9
:1007E00080E1E816F10471F0E8E0EE16F104F1F4AE
:1007F00013C0103339F588818F7D883549F7198109
:1008000022960260F0E1EF2EF12C88248A94982C35
:10081000A82CAFE0BA2E1FC078E0E72EF12C882478
:100820008A94982CA82CEFE1BE2E15C06FEF7FEFB5
:10083000CB0197010F2C000C440B550B46D34901FB
:100840005A0109C08AE0E82EF12C69E9862E982C1D
:10085000A82C69E1B62E40E060E070E0CB012701F2
:100860000F2C000C66087708FE0150ED352E310E76
:1008700029E0231570F42FEB210F2A3118F439ECFD
:10088000332E06C02FE9210F2A3128F529EA322E0E
:10089000310E232D30E02E153F05ECF44F3FC1F013
:1008A00086169706A806B90680F0A3019201FED22B
:1008B000232D30E040E050E0620F731F841F951F2E
:1008C000621773078407950710F44FEF01C041E0EA
:1008D00021961081C9CFC114D10451F0442311F0E5
:1008E000219703C001FF04C02297F601D183C08382
:1008F00000FF07C090958095709561957F4F8F4F51
:100900009F4F4F3F79F482E290E09093AF01809344
:10091000AE013FEF2FEF9FEF0DC040E030E020E051
:1009200090E008C0462F372F282F04C0103309F05D
:1009300069CF61CF642F732F822FCDB7DEB7E1E18E
:100940000DC391110CC2803219F089508550D0F737
:100950000895FB01DC0101900D920020E1F708955C
:10096000FB01DC014150504030F08D910190801925
:1009700019F40020B9F7881B990B0895AEE0B0E098
:10098000E3ECF4E0DCC20D891E898F89988D26E0A6
:100990002C831A83098397FF02C080E090E80197B7
:1009A0009E838D83AE01455E5F4F698D7A8DCE014A
:1009B000019611D04D815E8157FD0AC02F81388587
:1009C000421753070CF49A01F801E20FF31F10824B
:1009D0002E96E4E0D0C2ACE0B0E0E0EFF4E0A1C2DB
:1009E0006C017B018A01FC0117821682838181FFE1
:1009F000B1C1CE0101964C01F6019381F70193FD3F
:100A0000859193FF81917F01882309F49FC18532ED
:100A100039F493FD859193FF81917F01853221F413
:100A2000B60190E0B5D1E8CF512C312C20E0203236
:100A3000A0F48B3269F030F4803259F0833269F4DB
:100A400020612CC08D3239F0803339F4216026C00A
:100A50002260246023C0286021C027FD27C030ED1C
:100A6000380F3A3078F426FF06C0FAE05F9E300D6A
:100A70001124532E13C08AE0389E300D1124332EDA
:100A800020620CC08E3221F426FD60C1206406C0B5
:100A90008C3611F4206802C0883641F4F70193FDCA
:100AA000859193FF81917F018111C1CF982F9F7D07
:100AB0009554933028F40C5F1F4F9FE399830DC02A
:100AC000833631F0833771F0833509F057C021C088
:100AD000F801808189830E5F1F4F44244394512C79
:100AE000540114C03801F2E06F0E711CF801A080AF
:100AF000B18026FF03C0652D70E002C06FEF7FEF6D
:100B0000C5012C873AD12C0183012C852F77222E09
:100B100016C03801F2E06F0E711CF801A080B180A0
:100B200026FF03C0652D70E002C06FEF7FEFC501A7
:100B30002C8718D12C012C852068222E830123FCC0
:100B400019C0832D90E048165906A0F4B60180E242
:100B500090E01ED13A94F5CFF50127FC859127FE50
:100B600081915F01B60190E013D131103A94F1E028
:100B70004F1A51084114510479F7DFC0843611F03F
:100B8000893631F5F80127FF07C0608171818281C4
:100B900093810C5F1F4F08C060817181072E000C8C
:100BA000880B990B0E5F1F4F2F76722E97FF09C08F
:100BB00090958095709561957F4F8F4F9F4F2068DE
:100BC000722E2AE030E0A40113D1A82EA81843C049
:100BD000853729F42F7EB22E2AE030E025C0F22F8F
:100BE000F97FBF2E8F36C1F018F4883579F0AEC08A
:100BF000803719F0883721F0A9C02F2F2061B22E3D
:100C0000B4FE0DC08B2D8460B82E09C024FF0AC02D
:100C10009F2F9660B92E06C028E030E005C020E185
:100C200030E002C020E132E0F801B7FE07C0608189
:100C30007181828193810C5F1F4F06C06081718139
:100C400080E090E00E5F1F4FA401D2D0A82EA8181C
:100C5000FB2DFF777F2E76FE0BC0372D3E7FA51430
:100C600050F474FE0AC072FC08C0372D3E7E05C0E9
:100C7000BA2C372D03C0BA2C01C0B52C34FF0DC0DF
:100C8000FE01EA0DF11D8081803311F4397E09C027
:100C900032FF06C0B394B39404C0832F867809F062
:100CA000B39433FD12C030FF06C0B31490F43A0C75
:100CB000532C5B180FC0B31468F4B60180E290E0C7
:100CC0003C8766D0B3943C85F6CFB31418F43B1838
:100CD00002C05A2C312C34FF11C0B60180E390E0E1
:100CE0003C8756D03C8532FF16C031FD03C088E7F3
:100CF00090E002C088E590E0B6010CC0832F8678B2
:100D000051F031FF02C08BE201C080E237FD8DE27D
:100D1000B60190E03DD0A51430F4B60180E390E038
:100D200037D05A94F8CFAA94F401EA0DF11D8081CE
:100D3000B60190E02DD0A110F6CF332009F45CCE9F
:100D4000B60180E290E024D03A94F7CFF601868194
:100D5000978102C08FEF9FEF2C96E2E1FEC09927AA
:100D600088270895FC010590615070400110D8F764
:100D7000809590958E0F9F1F0895FC0161507040E3
:100D800001900110D8F7809590958E0F9F1F0895C0
:100D90000F931F93CF93DF93182F092FEB018B81B4
:100DA00081FD03C08FEF9FEF1EC082FF0FC02E8119
:100DB0003F818C819D812817390774F4E881F9817E
:100DC000CF01019699838883108306C0E885F98551
:100DD000812F0995892B31F78E819F8101969F8301
:100DE0008E83812F902FDF91CF911F910F910895C6
:100DF000FA01AA27283051F1203181F1E8946F934C
:100E00006E7F6E5F7F4F8F4F9F4FAF4FB1E03ED0F1
:100E1000B4E03CD0670F781F891F9A1FA11D680F8F
:100E2000791F8A1F911DA11D6A0F711D811D911DC2
:100E3000A11D20D009F468943F912AE0269F112437
:100E40003019305D3193DEF6CF010895462F47709B
:100E5000405D4193B3E00FD0C9F7F6CF462F4F70F6
:100E6000405D4A3318F0495D31FD4052419302D054
:100E7000A9F7EACFB4E0A6959795879577956795FA
:100E8000BA95C9F700976105710508959B01AC01FA
:100E90000A2E06945795479537952795BA95C9F721
:100EA000620F731F841F951FA01D0895DB018F9390
:100EB0009F932DD0BF91AF91A29F800D911DA39FB5
:100EC000900DB29F900D11240895A1E21A2EAA1B35
:100ED000BB1BFD010DC0AA1FBB1FEE1FFF1FA217EA
:100EE000B307E407F50720F0A21BB30BE40BF50BE7
:100EF000661F771F881F991F1A9469F76095709570
:100F0000809590959B01AC01BD01CF01089540D023
:100F1000A59F900DB49F900DA49F800D911D11244D
:100F200008952F923F924F925F926F927F928F928D
:100F30009F92AF92BF92CF92DF92EF92FF920F9368
:100F40001F93CF93DF93CDB7DEB7CA1BDB0B0FB672
:100F5000F894DEBF0FBECDBF09942A88398848882F
:100F60005F846E847D848C849B84AA84B984C884C5
:100F7000DF80EE80FD800C811B81AA81B981CE0FBC
:100F8000D11D0FB6F894DEBF0FBECDBFED010895A1
:100F9000A29FB001B39FC001A39F01D0B29F700D6B
:0C0FA000811D1124911D0895F894FFCFCD
:100FAC0033003500340020103300350034000804C1
:100FBC0033003500340002013600380037002010B1
:100FCC000000000000000000000000000000000015
:100FDC0053796E632061636B0A004F6E65546F54D6
:100FEC00776F0054776F546F4F6E65004361707369
:100FFC00756C6520257520256C752025732025754D
:10100C000A005265736574005265736574206163E0
:0C101C006B0A005365740041636B000018
:00000001FF
