:1000000012C02CC02BC02AC029C028C027C026C0BF
:1000100025C05CC123C022C021C020C01FC01EC09B
:100020001DC01CC01BC011241FBECFE5D4E0DEBF25
:10003000CDBF10E0A0E6B0E0EAE1F8E002C0059034
:100040000D92AC38B107D9F710E0ACE8B0E001C0D0
:100050001D92A13EB107E1F721D2DDC3D1CF40E02F
:10006000242F30E0FC0101900020E9F73197E81BD4
:10007000F90B2E173F0750F4FC01E20FF31F20810C
:100080002CB95D9BFECF5D9A4F5FEACF08954AE0A1
:1000900050E060E070E04ED223B72C7F23BF26E013
:1000A00022BF60938D0070938E0080938F00909399
:1000B0009000109292001092910083E083BF88E636
:1000C00090E0CDCFFB0101900020E9F7AF01415056
:1000D0005109461B570B47D321E0892B09F020E03B
:1000E000822F0895CF93DF93CDB7DEB7A0970FB6D9
:1000F000F894DEBF0FBECDBF60E2CE010196AFD057
:100100008823B9F062E770E0CE010196DBDF882337
:1001100021F088E790E0A3DF0CC063E870E0CE0137
:100120000196D0DF882329F0CE010596B0DF81E06B
:1001300001C080E0A0960FB6F894DEBF0FBECDBF21
:10014000DF91CF910895CF93DF93CDB7DEB7A0971E
:100150000FB6F894DEBF0FBECDBF60E2CE010196B0
:100160007ED08823B1F062E770E0CE010196AADF6D
:10017000882329F088E790E072DF80E00BC063E815
:1001800070E0CE0101969EDF882319F0CE0105961E
:100190007EDF81E0A0960FB6F894DEBF0FBECDBF24
:1001A000DF91CF910895CF93DF93CDB7DEB7A097BE
:1001B0000FB6F894DEBF0FBECDBF60E2CE01019650
:1001C0004ED08823A9F062E770E0CE0101967ADF75
:1001D000882329F088E790E042DF80E00AC067E8E2
:1001E00070E0CE0101966EDF882311F081E001C03E
:1001F00082E0A0960FB6F894DEBF0FBECDBFDF91B0
:10020000CF91089510BC89E189B98AB188618AB912
:1002100086E880BD8CB15F99FDCF80EE8BB90895E3
:1002200080E049E12AEF30E05F990EC0442391F06D
:10023000811101C0415090E00196B90154D195E17E
:100240009A95F1F70000F0CF442321F010928C0032
:100250008CB1089581E080938C0080E00895CF9266
:10026000DF92FF920F931F93CF93DF931F92CDB72F
:10027000DEB76C01FC011082623010F480E01DC01A
:1002800010928C008C01F12C80918C0081110BC09C
:100290006983C6DFF80181938F01F3946981F616B3
:1002A00011F08A3089F7EF2DF0E03197EC0DFD1D4C
:1002B00080818A3019F7108281E00F90DF91CF9111
:1002C0001F910F91FF90DF90CF9008951F920F9292
:1002D0000FB60F9211242F938F939F93AF93BF93D9
:1002E000EF93FF9386E082BF8091910090919200FE
:1002F00001969093920080939100883E9340B8F0CD
:1003000080918D0090918E00A0918F00B09190000F
:100310000196A11DB11D80938D0090938E00A09336
:100320008F00B093900010929200109291008091F3
:1003300093008130C9F120F0823009F45BC080C0A5
:1003400015BA8091980081112BC0E0916000F09166
:100350006100808190916600892320916700882345
:1003600029F08081822311F481E009C080818223F9
:1003700009F466C08081892309F062C082E080931D
:10038000930084EF91E09093970080939600809182
:10039000910090919200909395008093940050C0AA
:1003A0008150809398004CC0E0916000F091610012
:1003B000808190916700892359F080819091660037
:1003C000892331F41092930084E68093980010C042
:1003D0008091960090919700009729F410929300D5
:1003E0001092980005C00197909397008093960013
:1003F00081E025C0E0916000F091610080819091E2
:100400006600892359F0808190916700892331F437
:100410001092930084E68093980010C0809196001B
:1004200090919700009729F41092930010929800F1
:1004300005C00197909397008093960082E085BB5A
:10044000FF91EF91BF91AF919F918F912F910F905D
:100450000FBE0F901F90189587B38F7C87BB88B312
:10046000806388BB109293001092980010929700BE
:1004700010929600109295001092940089E990E0F5
:100480009093DA008093D9001092DD001092DE0084
:100490001092DC0088E08093DB00089584B38760CD
:1004A00084BBDADF86E082BF89B7816089BF83E0E1
:1004B00083BF10928D0010928E0010928F001092C8
:1004C000900010929200109291009CDE789480E04F
:1004D000813039F020F08230D9F765DEF9CF02DEC5
:1004E000F7CF31DEF5CF97FB072E16F4009406D038
:1004F00077FD08D00BD007FC05D03EF49095819590
:100500009F4F0895709561957F4F0895AA1BBB1B5F
:1005100051E107C0AA1FBB1FA617B70710F0A61B03
:10052000B70B881F991F5A95A9F780959095BC0124
:10053000CD0108952F923F925F926F927F928F929A
:100540009F92AF92BF92CF92DF92EF92FF920F9362
:100550001F93CF93DF938B01EA016115710521F0A1
:10056000DB018C9311969C93209739F09E012250C9
:1005700031092332310508F0D5C07C016701BFEF96
:10058000CB1ADB0A5601F7016080862D90E0E3D09C
:10059000892B11F07601F2CFFDE26F120AC05701EC
:1005A00082E0A80EB11CD70111966C907724739449
:1005B0000BC0BBE26B1207C05701E2E0AE0EB11CEC
:1005C000D70111966C90712CCE018F7E892B89F406
:1005D000B0E36B1236C0F50180818F7D8835D1F490
:1005E0006180F2E0AF0EB11C872D8260782EC0E1F1
:1005F000D0E0CA30D10549F1C031D10521F0C83071
:10060000D10599F409C0CC24CA94DC2CEC2CAFE0C1
:10061000FA2E21C0209769F7C8E0D0E0CC24CA9414
:10062000DC2CEC2CFFE1FF2E16C06FEF7FEFCB012F
:100630009E01442737FD4095542FB5D069017A01BA
:100640000AC02097B1F6CAE0D0E0E9E9CE2EDC2C52
:10065000EC2CE9E1FE2EF50160E020E030E0A9019C
:100660004E01AA2497FCA094BA2C1F0170ED572EBE
:10067000560CA9E0A51570F48FEB860D8A3118F49D
:1006800099EC592E06C08FE9860D8A3140F589EA2A
:10069000582E560C852D90E08C179D0704F56F3F62
:1006A000D1F0C216D306E406F50690F0C501B401F8
:1006B0006BD09B01AC01852D90E0A0E0B0E0280F4D
:1006C000391F4A1F5B1F281739074A075B0710F4B9
:1006D0006FEF01C061E03196D1016C90C6CF01157A
:1006E000110551F0662311F0319703C071FE04C06B
:1006F0003297D801ED93FC9370FE07C0509540955A
:10070000309521953F4F4F4F5F4F67FF10C082E2FA
:1007100090E09093E0008093DF006FEF7FEF8FEF2A
:100720009FEF07C060E070E080E090E002C0B90198
:10073000CA01DF91CF911F910F91FF90EF90DF9051
:10074000CF90BF90AF909F908F907F906F905F9071
:100750003F902F900895911114C0803219F0895064
:100760008550D0F70895FB01DC014150504030F036
:100770008D910190801919F40020B9F7881B990B0D
:100780000895992788270895DB018F939F932DD093
:10079000BF91AF91A29F800D911DA39F900DB29F1D
:1007A000900D11240895A1E21A2EAA1BBB1BFD0176
:1007B0000DC0AA1FBB1FEE1FFF1FA217B307E40740
:1007C000F50720F0A21BB30BE40BF50B661F771F98
:1007D000881F991F1A9469F7609570958095909578
:1007E0009B01AC01BD01CF01089509D0A59F900DDB
:1007F000B49F900DA49F800D911D11240895A29F78
:10080000B001B39FC001A39F01D0B29F700D811DA5
:0A0810001124911D0895F894FFCF04
:10081A00360038003700102053796E632061636B0D
:10082A000A005265736574005265736574206163CA
:0C083A006B0A005365740041636B000002
:00000001FF
