:1000000012C02CC02BC02AC029C028C027C026C0BF
:1000100025C065C023C022C021C020C01FC01EC093
:100020001DC01CC01BC011241FBECFE5D4E0DEBF25
:10003000CDBF10E0A0E6B0E0ECEAF6E002C005902B
:100040000D92A038B107D9F710E0A0E8B0E001C0E8
:100050001D92A938B107E1F77FD126C3D1CF40E087
:10006000242F30E0FC0101900020E9F73197E81BD4
:10007000F90B2E173F0750F4FC01E20FF31F20810C
:100080002CB95D9BFECF5D9A4F5FEACF089586E065
:1000900082BF89B7816089BF83E083BF10928100EE
:1000A00010928200109283001092840010928600B9
:1000B00010928500089523B72C7F23BF26E022BF2E
:1000C00060938100709382008093830090938400FA
:1000D000109286001092850083E083BF08951F92DE
:1000E0000F920FB60F9211242F938F939F93AF937C
:1000F000BF9386E082BF8091850090918600019633
:100100009093860080938500883E9340B8F080915C
:10011000810090918200A0918300B09184000196AB
:10012000A11DB11D8093810090938200A093830054
:10013000B09384001092860010928500BF91AF9119
:100140009F918F912F910F900FBE0F901F90189538
:100150004AE050E060E070E036D1ADDF80E690E04C
:100160007ECFFB0101900020E9F7AF01415051091A
:10017000461B570B41D221E0892B09F020E0822F4A
:100180000895CF93DF93CDB7DEB7A0970FB6F8945D
:10019000DEBF0FBECDBF60E2CE010196A6D08823A0
:1001A000B9F06AE670E0CE010196DBDF882321F02A
:1001B00080E790E054DF0CC06BE770E0CE01019661
:1001C000D0DF882329F0CE010596C2DF81E001C08F
:1001D00080E0A0960FB6F894DEBF0FBECDBFDF91D2
:1001E000CF910895CF93DF93CDB7DEB7A0970FB629
:1001F000F894DEBF0FBECDBF60E2CE01019675D090
:100200008823B1F06AE670E0CE010196AADF882368
:1002100029F080E790E023DF80E00BC06BE770E01F
:10022000CE0101969EDF882319F0CE01059690DF5E
:1002300081E0A0960FB6F894DEBF0FBECDBFDF9170
:10024000CF910895CF93DF93CDB7DEB7A0970FB6C8
:10025000F894DEBF0FBECDBF60E2CE01019645D05F
:10026000882361F06AE670E0CE0101967ADF882388
:1002700029F080E790E0F3DE80E001C082E0A09604
:100280000FB6F894DEBF0FBECDBFDF91CF910895BA
:1002900010BC89E189B98AB188618AB986E880BDD4
:1002A0008CB15F99FDCF80EE8BB9089580E049E174
:1002B0002AEF30E05F990EC0442391F0811101C014
:1002C000415090E00196B90157D095E19A95F1F728
:1002D0000000F0CF442321F0109280008CB10895EB
:1002E00081E08093800080E00895CF92DF92FF92BA
:1002F0000F931F93CF93DF931F92CDB7DEB76C019F
:10030000FC011082623010F480E01DC01092800069
:100310008C01F12C8091800081110BC06983C6DFB4
:10032000F80181938F01F3946981F61611F08A30F8
:1003300089F7EF2DF0E03197EC0DFD1D80818A30BB
:1003400019F7108281E00F90DF91CF911F910F91EB
:10035000FF90DF90CF900895A09A99DE99DF78946E
:1003600080E0882339F08130E1F795B3982795BB79
:1003700039DFF7CF06DFF5CF97FB072E16F4009491
:1003800006D077FD08D00BD007FC05D03EF4909541
:1003900081959F4F0895709561957F4F0895AA1B91
:1003A000BB1B51E107C0AA1FBB1FA617B70710F060
:1003B000A61BB70B881F991F5A95A9F78095909592
:1003C000BC01CD0108952F923F925F926F927F9270
:1003D0008F929F92AF92BF92CF92DF92EF92FF9255
:1003E0000F931F93CF93DF938B01EA016115710582
:1003F00021F0DB018C9311969C93209739F09E019C
:10040000225031092332310508F0D5C07C01670143
:10041000BFEFCB1ADB0A5601F7016080862D90E012
:10042000E3D0892B11F07601F2CFFDE26F120AC002
:10043000570182E0A80EB11CD70111966C90772469
:1004400073940BC0BBE26B1207C05701E2E0AE0E23
:10045000B11CD70111966C90712CCE018F7E892B27
:1004600089F4B0E36B1236C0F50180818F7D883549
:10047000D1F46180F2E0AF0EB11C872D8260782E3E
:10048000C0E1D0E0CA30D10549F1C031D10521F039
:10049000C830D10599F409C0CC24CA94DC2CEC2CCA
:1004A000AFE0FA2E21C0209769F7C8E0D0E0CC2455
:1004B000CA94DC2CEC2CFFE1FF2E16C06FEF7FEF0F
:1004C000CB019E01442737FD4095542FB5D06901DB
:1004D0007A010AC02097B1F6CAE0D0E0E9E9CE2E51
:1004E000DC2CEC2CE9E1FE2EF50160E020E030E0B0
:1004F000A9014E01AA2497FCA094BA2C1F0170ED0B
:10050000572E560CA9E0A51570F48FEB860D8A3195
:1005100018F499EC592E06C08FE9860D8A3140F502
:1005200089EA582E560C852D90E08C179D0704F50E
:100530006F3FD1F0C216D306E406F50690F0C50170
:10054000B4016BD09B01AC01852D90E0A0E0B0E040
:10055000280F391F4A1F5B1F281739074A075B07F7
:1005600010F46FEF01C061E03196D1016C90C6CFFD
:100570000115110551F0662311F0319703C071FE8A
:1005800004C03297D801ED93FC9370FE07C05095DC
:100590004095309521953F4F4F4F5F4F67FF10C0FB
:1005A00082E290E090938800809387006FEF7FEF66
:1005B0008FEF9FEF07C060E070E080E090E002C046
:1005C000B901CA01DF91CF911F910F91FF90EF9078
:1005D000DF90CF90BF90AF909F908F907F906F9063
:1005E0005F903F902F900895911114C0803219F0C0
:1005F00089508550D0F70895FB01DC0141505040EF
:1006000030F08D910190801919F40020B9F7881B02
:10061000990B0895992788270895DB018F939F935D
:100620002DD0BF91AF91A29F800D911DA39F900DE2
:10063000B29F900D11240895A1E21A2EAA1BBB1B94
:10064000FD010DC0AA1FBB1FEE1FFF1FA217B3079E
:10065000E407F50720F0A21BB30BE40BF50B661FB4
:10066000771F881F991F1A9469F760957095809578
:1006700090959B01AC01BD01CF01089509D0A59FC4
:10068000900DB49F900DA49F800D911D112408958D
:10069000A29FB001B39FC001A39F01D0B29F700D74
:0C06A000811D1124911D0895F894FFCFD6
:1006AC0053796E632061636B0A0052657365740045
:1006BC0052657365742061636B0A005365740000A6
:00000001FF
