:1000000012C024C023C022C021C020C01FC01EC0F7
:100010001DC01CC01BC01AC019C018C017C016C014
:1000200015C014C013C011241FBECFE5D4E0DEBF3D
:10003000CDBF10E0A0E6B0E0E4ECF0E002C0059037
:100040000D92A437B107D9F71AD03AC0D9CF40E002
:10005000242F30E0FC0101900020E9F73197E81BE4
:10006000F90B2E173F0750F4FC01E20FF31F20811C
:100070002CB95D9BFECF5D9A4F5FEACF089510BC0F
:100080008CE089B98AB188618AB986E880BD8CB173
:100090005F99FDCF80EE8BB9B29B03C080E690E004
:1000A000D6DFB39B03C08AE690E0D1DF8FE0EFE9B3
:1000B000FFE03197F1F700C000008150C1F7ECCFAD
:0400C000F894FFCFE2
:1000C40053656E736F7220310A0053656E736F72DD
:0400D40020320A00CC
:00000001FF
