:1000000012C02CC02BC02AC029C028C027C026C0BF
:1000100025C07DC123C022C021C020C01FC01EC07A
:100020001DC01CC01BC011241FBECFE5D4E0DEBF25
:10003000CDBF10E0A0E6B0E0EEEDFFE002C005901D
:100040000D92AC3DB107D9F711E0ACEDB0E001C0C5
:100050001D92A03BB107E1F78DD2BFC7D1CF40E0E1
:10006000242F30E0FC0101900020E9F73197E81BD4
:10007000F90B2E173F0750F4FC01E20FF31F20810C
:100080002CB95D9BFECF5D9A4F5FEACF08954AE0A1
:1000900050E060E070E05AD323B72C7F23BF26E006
:1000A00022BF60933E0170933F0180934001909383
:1000B0004101109243011092420183E083BF80E925
:1000C00090E0CDCFFC0101900020E9F73197AF011E
:1000D000481B590BBC018EE191E054D421E0892BDF
:1000E00009F020E0822F08950F931F93CF93DF93A1
:1000F000CDB7DEB761970FB6F894DEBF0FBECDBFA8
:100100002A874C875D876E877F87888B998B8E01C6
:100110000F5F1F4F311103C06AE970E002C063EA4C
:1001200070E0C80128D489898F9388898F931F93A1
:100130000F938F858F938E858F938D858F938C856D
:100140008F938A851F928F938CEA90E09F938F9371
:100150001F9280E48F938DED90E09F938F9320D436
:100160000FB6F894DEBF0FBECDBF61960FB6F89400
:10017000DEBF0FBECDBFDF91CF911F910F910895CC
:1001800010BC89E189B98AB188618AB986E880BDE5
:100190008CB15F99FDCF80EE8BB9089580E024E6A5
:1001A000EAEFF0E05F990EC0222391F0811101C0C7
:1001B000215090E00196BF01A2D295E19A95F1F706
:1001C0000000F0CF222321F01092DC008CB10895C2
:1001D00081E08093DC0080E00895DF92EF92FF924F
:1001E0000F931F93CF93DF931F92CDB7DEB78C0190
:1001F000FC011082623010F480E01FC01092DC001D
:100200007C01D12C8091DC0081110BC06983C6DF99
:10021000F70181937F01D3946981D61619F08A3052
:1002200089F76D2D70E061507109F801E60FF71F35
:1002300080818A3009F7108281E00F90DF91CF91A1
:100240001F910F91FF90EF90DF900895CF92DF9272
:10025000EF92FF926091AA019091AB01961709F479
:1002600051C0C0903E01D0903F01E0904001F0901D
:100270004101482F50E026E0829FF0011124EC5B01
:10028000FE4F71E02081213009F470E0209142019D
:1002900030914301A6E0A49FF001A59FF00D112429
:1002A000EC5BFE4F418152814217530728F42091A5
:1002B00042013091430106C0209142013091430137
:1002C00028513C4F241B350BA091AD014A2F50E023
:1002D000E091A801F091A901B8E0AB9FE00DF11DFC
:1002E000112480837183C282D382E482F5823783B2
:1002F00026839F5F9093AB01CA01019670E0FFD106
:100300008093AD01FF90EF90DF90CF9008951F9202
:100310000F920FB60F9211244F925F926F927F92BD
:100320008F929F92AF92BF92CF92DF92EF92FF9205
:100330000F931F932F933F934F935F936F937F93ED
:100340008F939F93AF93BF93CF93DF93EF93FF93DD
:1003500086E082BF80914201909143010196909383
:100360004301809342018091420190914301883E74
:100370009340B8F080913E0190913F01A0914001DF
:10038000B09141010196A11DB11D80933E01909352
:100390003F01A0934001B09341011092430110929C
:1003A0004201C4E4D1E009E411E087E6E82E80E0F0
:1003B000F82E90E6692E90E0792E26E6A22E20E017
:1003C000B22ED12C34E6C32E42E0542E5EEE852EA2
:1003D00052E0952E442443948881813069F118F0CD
:1003E0008230A9F152C0D8018C91811121C0D30172
:1003F000ED91FC919081D5018C91982339F0208169
:10040000D7019C91922311F4488209C02081D70121
:100410009C919223D1F190818923B9F558829C82D5
:100420008B8280914201909143019A8389832DC0F0
:100430008150F801808329C0D301ED91FC91908116
:10044000D7018C918923B1F09081F5010AC0D301C5
:10045000ED91FC919081D5018C91892359F0908187
:10046000F7018081892331F48D2DF0DE1882D801C7
:10047000CC920BC08B819C81009721F41882F801EB
:10048000108203C001979C838B83D39426960A5FC6
:100490001F4FF8E0EF0EF11C28E0620E711C88E09F
:1004A000A80EB11CA6E0DA1297CFFF91EF91DF9171
:1004B000CF91BF91AF919F918F917F916F915F91FC
:1004C0004F913F912F911F910F91FF90EF90DF90EF
:1004D000CF90BF90AF909F908F907F906F905F90E4
:1004E0004F900F900FBE0F901F9018950F931F9372
:1004F000CF93DF93A0E6B0E0E4E4F1E020E030E069
:1005000014960D911C911597E8019881A901405A04
:100510005F4FEA016F818E81862B482F409594238F
:10052000E80198831296CD91DC9113979881892BDD
:100530008883108215821482138212821182285FAE
:100540003F4F1896369620333105D1F688E691E074
:100550009093A9018093A8011092AC011092AD0173
:100560001092AB0188E08093AA01DF91CF911F9197
:100570000F910895CF93DF93CDB7DEB760970FB695
:10058000F894DEBF0FBECDBF84B3876084BB1092EA
:100590001D01ACDF86E082BF89B7816089BF83E03F
:1005A00083BF10923E0110923F01109240011092C1
:1005B00041011092430110924201E2DD789418E06B
:1005C00082E0F82E01E080911D01813011F120F0D0
:1005D000823009F47CC0F9CF60E28EE191E0FDDD6C
:1005E000882389F382EC90E06DDD882319F088EC94
:1005F00090E083C083ED90E065DD882321F382E203
:1006000091E045DD1092AC011092AD011092AB016A
:100610006FC060E28EE191E0E0DD8823A1F082EC22
:1006200090E050DD882331F088EC90E018DD1092E6
:100630001D01C9CF83ED90E045DD882321F282E2E0
:1006400091E025DDC0CF2091AB01222309F4BBCF7F
:100650003091AC01832F90E0E091A801F091A901C5
:1006600048E0349FE00DF11D1124DE011996312F71
:1006700001900D923A95E1F701966091AA0170E020
:100680003ED08093AC0121502093AB01FE013996FE
:10069000DE011196812F01900D928A95E1F7FE01FE
:1006A0003196DE011996812F01900D928A95E1F71E
:1006B00029853A854B855C856D857E858F859889F2
:1006C00013DD8DED90E0CBDCF0921D017CCF60E27C
:1006D0008EE191E082DD882371F082EC90E0F2DC23
:1006E0008111A2CF87ED90E0EDDC882309F46BCF78
:1006F00000931D0168CF8DED90E0B1DC64CF97FBD6
:10070000072E16F4009406D077FD08D00BD007FC16
:1007100005D03EF4909581959F4F08957095619511
:100720007F4F0895AA1BBB1B51E107C0AA1FBB1F27
:10073000A617B70710F0A61BB70B881F991F5A956D
:10074000A9F780959095BC01CD010895A6E0B0E091
:10075000EBEAF3E0F5C35C016B017A016115710509
:1007600019F0DB018D939C93E114F10429F0C7018A
:100770000297839708F0D9C03501BFEF6B1A7B0A47
:10078000F5011081812F90E0EED0892B11F05301FB
:10079000F3CF1D3249F43501F2E06F0E711CD50123
:1007A00011961C9101E009C01B3231F43501B2E011
:1007B0006B0E711CF501118100E0E114F10409F4E4
:1007C000C2C0F0E1EF16F10489F4103391F5D301C2
:1007D0008C918F7D883509F0B0C011961C91B2E0E4
:1007E0006B0E711C026050E1E52EF12CEAE0EE1672
:1007F000F10409F4AEC0F0E1EF16F104D1F028E005
:10080000E216F10451F438E0E32EF12C88248A94A6
:10081000982CA82C4FE1B42E12C06FEF7FEFCB01C4
:100820009701442737FD4095542F68D349015A0159
:1008300006C088248A94982CA82C2FE0B22E7E82A1
:100840006D8260E020E030E0A9012701662457FCBA
:100850006094762C2D803E80E0EDE10FEA3060F070
:100860008FEB810F8A3110F4E9EC05C08FE9810F1D
:100870008A3188F5E9EAE10F8E2F90E08E159F0509
:1008800054F56F3F01F182169306A406B506D0F029
:10089000C301B20124D32E2F30E040E050E0298381
:1008A0003A834B835C83260F371F481F591F89816A
:1008B0009A81AB81BC81281739074A075B0710F082
:1008C00061E001C06FEFED81FE813196FE83ED8323
:1008D000D1011C91BFCFC114D10489F0662339F036
:1008E0008D819E810197F6019183808308C001FF6D
:1008F00006C08D819E810297D6018D939C9300FF47
:1009000007C050954095309521953F4F4F4F5F4F11
:1009100067FF10C082E290E09093AF018093AE0138
:100920006FEF7FEF8FEF9FEF1BC060E070E080E024
:1009300090E016C0B901CA0113C010E3E114F1043C
:1009400009F461CF53CF103309F441CF9AE0E92E77
:10095000F12C89E9882E982CA82C89E1B82E6FCF2C
:100960002696E2E109C391110BC2803219F0895039
:100970008550D0F70895FB01DC0101900D92002015
:10098000E1F70895FB01DC014150504030F08D91BA
:100990000190801919F40020B9F7881B990B08956C
:1009A000AEE0B0E0E5EDF4E0D9C20D891E898F8993
:1009B000988D26E02C831A83098397FF02C080E07C
:1009C00090E801979E838D83AE01455E5F4F698DF0
:1009D0007A8DCE01019611D04D815E8157FD0AC0FE
:1009E0002F813885421753070CF49A01F801E20F62
:1009F000F31F10822E96E4E0CDC2ACE0B0E0E2E05E
:100A0000F5E09EC27C016B018A01FC01178216820F
:100A1000838181FFB0C1CE0101964C01F701938122
:100A2000F60193FD859193FF81916F01882309F46D
:100A30009EC1853239F493FD859193FF81916F01B9
:100A4000853221F4B70190E0B4D1E8CF512C312C9C
:100A500020E02032A0F48B3269F030F4803259F07B
:100A6000833269F420612CC08D3239F0803339F43F
:100A7000216026C02260246023C0286021C027FD99
:100A800027C030ED380F3A3078F426FF06C0FAE080
:100A90005F9E300D1124532E13C08AE0389E300D16
:100AA0001124332E20620CC08E3221F426FD5FC14A
:100AB000206406C08C3611F4206802C0883641F4E8
:100AC000F60193FD859193FF81916F018111C1CF53
:100AD000982F9F7D9554933028F40C5F1F4FFFE3B0
:100AE000F9830DC0833631F0833771F0833509F017
:100AF00057C021C0F801808189830E5F1F4F4424B5
:100B00004394512C540114C03801F2E06F0E711C53
:100B1000F801A080B18026FF03C0652D70E002C0FF
:100B20006FEF7FEFC5012C8739D12C0183012C8514
:100B30002F77222E16C03801F2E06F0E711CF801DB
:100B4000A080B18026FF03C0652D70E002C06FEF6A
:100B50007FEFC5012C8717D12C012C852068222E10
:100B6000830123FC19C0832D90E048165906A0F498
:100B7000B70180E290E01DD13A94F5CFF50127FC52
:100B8000859127FE81915F01B70190E012D131106C
:100B90003A94F1E04F1A51084114510479F7DEC03C
:100BA000843611F0893631F5F80127FF07C06081DE
:100BB0007181828193810C5F1F4F08C060817181B8
:100BC000882777FD8095982F0E5F1F4F2F76722E06
:100BD00097FF09C090958095709561957F4F8F4FD5
:100BE0009F4F2068722E2AE030E0A4011AD1A82E6F
:100BF000A81843C0853729F42F7EB22E2AE030E0B2
:100C000025C0F22FF97FBF2E8F36C1F018F488353A
:100C100079F0ADC0803719F0883721F0A8C02F2FA8
:100C20002061B22EB4FE0DC08B2D8460B82E09C099
:100C300024FF0AC09F2F9660B92E06C028E030E03E
:100C400005C020E130E002C020E132E0F801B7FE4B
:100C500007C060817181828193810C5F1F4F06C044
:100C60006081718180E090E00E5F1F4FA401D9D0B8
:100C7000A82EA818FB2DFF777F2E76FE0BC0372DF0
:100C80003E7FA51450F474FE0AC072FC08C0372DD4
:100C90003E7E05C0BA2C372D03C0BA2C01C0B52C3E
:100CA00034FF0DC0FE01EA0DF11D8081803311F487
:100CB000397E09C032FF06C0B394B39404C0832FB9
:100CC000867809F0B39433FD12C030FF06C05A2C69
:100CD000B31418F4530C5B18B32CB31460F4B701BD
:100CE00080E290E03C8765D0B3943C85F6CFB314A6
:100CF00010F43B1801C0312C34FF11C0B70180E360
:100D000090E03C8756D03C8532FF16C031FD03C0D1
:100D100088E790E002C088E590E0B7010CC0832F1F
:100D2000867851F031FF02C08BE201C080E237FDCE
:100D30008DE2B70190E03DD0A51430F4B70180E317
:100D400090E037D05A94F8CFAA94F401EA0DF11D3F
:100D50008081B70190E02DD0A110F6CF332009F4A7
:100D60005DCEB70180E290E024D03A94F7CFF7014E
:100D70008681978102C08FEF9FEF2C96E2E1FCC045
:100D8000992788270895FC01059061507040011053
:100D9000D8F7809590958E0F9F1F0895FC016150A4
:100DA000704001900110D8F7809590958E0F9F1F8D
:100DB00008950F931F93CF93DF93FB01238121FDB0
:100DC00003C08FEF9FEF28C022FF16C046815781D6
:100DD000248135814217530744F4A081B1819D01DC
:100DE0002F5F3F4F318320838C93268137812F5F84
:100DF0003F4F3783268310C0EB01092F182F008443
:100E0000F185E02D0995892BE1F68E819F81019670
:100E10009F838E83812F902FDF91CF911F910F9110
:100E20000895FA01AA27283051F1203181F1E89480
:100E30006F936E7F6E5F7F4F8F4F9F4FAF4FB1E0CD
:100E40003ED0B4E03CD0670F781F891F9A1FA11DC8
:100E5000680F791F8A1F911DA11D6A0F711D811DC9
:100E6000911DA11D20D009F468943F912AE0269F8E
:100E700011243019305D3193DEF6CF010895462FED
:100E80004770405D4193B3E00FD0C9F7F6CF462FCE
:100E90004F70405D4A3318F0495D31FD4052419337
:100EA00002D0A9F7EACFB4E0A695979587957795F4
:100EB0006795BA95C9F700976105710508959B017B
:100EC000AC010A2E06945795479537952795BA9504
:100ED000C9F7620F731F841F951FA01D0895DB01C2
:100EE0008F939F9364D0BF91AF91A29F800D911D6E
:100EF000A39F900DB29F900D11240895A1E21A2E88
:100F0000AA1BBB1BFD010DC0AA1FBB1FEE1FFF1FAD
:100F1000A217B307E407F50720F0A21BB30BE40BFD
:100F2000F50B661F771F881F991F1A9469F7609544
:100F30007095809590959B01AC01BD01CF010895FE
:100F40002F923F924F925F926F927F928F929F92D9
:100F5000AF92BF92CF92DF92EF92FF920F931F93C7
:100F6000CF93DF93CDB7DEB7CA1BDB0B0FB6F89478
:100F7000DEBF0FBECDBF09942A88398848885F84B8
:100F80006E847D848C849B84AA84B984C884DF8029
:100F9000EE80FD800C811B81AA81B981CE0FD11D0D
:100FA0000FB6F894DEBF0FBECDBFED01089509D096
:100FB000A59F900DB49F900DA49F800D911D1124AD
:100FC0000895A29FB001B39FC001A39F01D0B29F1B
:0E0FD000700D811D1124911D0895F894FFCF1E
:100FDE00330035003400201033003500340008048F
:100FEE00330035003400020136003800370020107F
:100FFE003600380037000804300032003100100887
:10100E0053796E632061636B0A004F6E65546F54A3
:10101E00776F0054776F546F4F6E65004361707336
:10102E00756C6520257520256C752025732025751A
:10103E000A005265736574005265736574206163AE
:0C104E006B0A005365740041636B0000E6
:00000001FF
